:020000040000FA
:0420000023EF10F0CA
:022004000000DA
:08201800C280C46EC30EC216A3
:10202000C450C2120000000000000000C282C2B210
:1020300017EF10F0C29012003D0ED66ED650D8A405
:102040001EEF10F012000F01800E9B6E0F01700E3C
:10205000D36E0F01100ED26E0F01900EB56ED2BE70
:102060002FEF10F00F01896A0F015B6B0F012F0E2C
:10207000926E0F018A6A0F015C6B0F01936A0F0168
:10208000F19E0F018B6A0F015D6B0F01B00E946E14
:102090000F01810ED56E0F01806A0F01816A0F0159
:1020A000826A0F01896A0F015B6B1F0E5B6F0F0164
:1020B000C26A0F01C16A0F010E0EC06E0F012F0E12
:1020C000926EC30E8A6E84B668EF10F00EEF00F0C9
:1020D000080E0CEC10F0C4508A6E1CEC10F063EF8C
:0220E00010F0FE
:020000040030CA
:0100000033CC
:0100010028D6
:010005009169
:010006008574
:010008000FE8
:01000900C036
:01000A000FE6
:01000B00E014
:01000C000FE4
:01000D0040B2
:00000001FF
