:020000040000FA
:0420000013EF10F0DA
:022004000000DA
:082018003D0ED66ED650D8A48F
:102020000EEF10F012000F01800E9B6E0F01700E6C
:10203000D36E0F01100ED26E0F01900EB56ED2BE90
:102040001FEF10F00F01896A0F015B6B0F012F0E5C
:10205000926E0F018A6A0F015C6B0F01936A0F0188
:10206000F19E0F018B6A0F015D6B0F01B00E946E34
:102070000F01810ED56E0F01806A0F01816A0F0179
:10208000826AC30E8A6EF80E0C6E8B804DEC10F0D7
:102090000D500C6E4DEC10F08B9000000C2E4DEF9F
:0420A00010F012002A
:020000040030CA
:0100000033CC
:0100010028D6
:010005009169
:01000600A554
:010008000FE8
:01000900C036
:01000A000FE6
:01000B00E014
:01000C000FE4
:01000D0040B2
:00000001FF
